:020000040000fa
:080000000002040000000000f2
:020000040000fa
:04000800fa020000f8
:020000040000fa
:04000c00fa020000f4
:020000040000fa
:04001000fa020000f0
:020000040000fa
:04001400fa020000ec
:020000040000fa
:04001800fa020000e8
:020000040000fa
:04001c00fa020000e4
:020000040000fa
:04002000fa020000e0
:020000040000fa
:04002400fa020000dc
:020000040000fa
:04002800fa020000d8
:020000040000fa
:04002c00fa020000d4
:020000040000fa
:04003000fa020000d0
:020000040000fa
:04003400fa020000cc
:020000040000fa
:04003800fa020000c8
:020000040000fa
:04003c00fa020000c4
:020000040000fa
:04004000fa020000c0
:020000040000fa
:04004400fa020000bc
:020000040000fa
:04004800fa020000b8
:020000040000fa
:04004c00fa020000b4
:020000040000fa
:04005000fa020000b0
:020000040000fa
:04005400fa020000ac
:020000040000fa
:04005800fa020000a8
:020000040000fa
:04005c00fa020000a4
:020000040000fa
:04006000fa020000a0
:020000040000fa
:04006400fa0200009c
:020000040000fa
:04006800fa02000098
:020000040000fa
:04006c00fa02000094
:020000040000fa
:04007000fa02000090
:020000040000fa
:04007400fa0200008c
:020000040000fa
:04007800fa02000088
:020000040000fa
:04007c00fa02000084
:020000040000fa
:04008000fa02000080
:020000040000fa
:04008400fa0200007c
:020000040000fa
:04008800fa02000078
:020000040000fa
:04008c00fa02000074
:020000040000fa
:04009000fa02000070
:020000040000fa
:04009400fa0200006c
:020000040000fa
:04009800fa02000068
:020000040000fa
:04009c00fa02000064
:020000040000fa
:0400a000fa02000060
:020000040000fa
:0400a400fa0200005c
:020000040000fa
:0400a800fa02000058
:020000040000fa
:0400ac00fa02000054
:020000040000fa
:0400b000fa02000050
:020000040000fa
:0400b400fa0200004c
:020000040000fa
:0400b800fa02000048
:020000040000fa
:0400bc00fa02000044
:020000040000fa
:0400c000fa02000040
:020000040000fa
:0400c400fa0200003c
:020000040000fa
:0400c800fa02000038
:020000040000fa
:0400cc00fa02000034
:020000040000fa
:0400d000fa02000030
:020000040000fa
:0400d400fa0200002c
:020000040000fa
:0400d800fa02000028
:020000040000fa
:0400dc00fa02000024
:020000040000fa
:0400e000fa02000020
:020000040000fa
:0400e400fa0200001c
:020000040000fa
:0400e800fa02000018
:020000040000fa
:0400ec00fa02000014
:020000040000fa
:0400f000fa02000010
:020000040000fa
:0400f400fa0200000c
:020000040000fa
:0400f800fa02000008
:020000040000fa
:0400fc00fa02000004
:020000040000fa
:04010000fa020000ff
:020000040000fa
:04010400fa020000fb
:020000040000fa
:04010800fa020000f7
:020000040000fa
:04010c00fa020000f3
:020000040000fa
:04011000fa020000ef
:020000040000fa
:04011400fa020000eb
:020000040000fa
:04011800fa020000e7
:020000040000fa
:04011c00fa020000e3
:020000040000fa
:04012000fa020000df
:020000040000fa
:04012400fa020000db
:020000040000fa
:04012800fa020000d7
:020000040000fa
:04012c00fa020000d3
:020000040000fa
:04013000fa020000cf
:020000040000fa
:04013400fa020000cb
:020000040000fa
:04013800fa020000c7
:020000040000fa
:04013c00fa020000c3
:020000040000fa
:04014000fa020000bf
:020000040000fa
:04014400fa020000bb
:020000040000fa
:04014800fa020000b7
:020000040000fa
:04014c00fa020000b3
:020000040000fa
:04015000fa020000af
:020000040000fa
:04015400fa020000ab
:020000040000fa
:04015800fa020000a7
:020000040000fa
:04015c00fa020000a3
:020000040000fa
:04016000fa0200009f
:020000040000fa
:04016400fa0200009b
:020000040000fa
:04016800fa02000097
:020000040000fa
:04016c00fa02000093
:020000040000fa
:04017000fa0200008f
:020000040000fa
:04017400fa0200008b
:020000040000fa
:04017800fa02000087
:020000040000fa
:04017c00fa02000083
:020000040000fa
:04018000fa0200007f
:020000040000fa
:04018400fa0200007b
:020000040000fa
:04018800fa02000077
:020000040000fa
:04018c00fa02000073
:020000040000fa
:04019000fa0200006f
:020000040000fa
:04019400fa0200006b
:020000040000fa
:04019800fa02000067
:020000040000fa
:04019c00fa02000063
:020000040000fa
:0401a000fa0200005f
:020000040000fa
:0401a400fa0200005b
:020000040000fa
:0401a800fa02000057
:020000040000fa
:0401ac00fa02000053
:020000040000fa
:0401b000fa0200004f
:020000040000fa
:0401b400fa0200004b
:020000040000fa
:0401b800fa02000047
:020000040000fa
:0401bc00fa02000043
:020000040000fa
:0401c000fa0200003f
:020000040000fa
:0401c400fa0200003b
:020000040000fa
:0401c800fa02000037
:020000040000fa
:0401cc00fa02000033
:020000040000fa
:0401d000fa0200002f
:020000040000fa
:0401d400fa0200002b
:020000040000fa
:0401d800fa02000027
:020000040000fa
:0401dc00fa02000023
:020000040000fa
:0401e000fa0200001f
:020000040000fa
:0401e400fa0200001b
:020000040000fa
:0401e800fa02000017
:020000040000fa
:0401ec00fa02000013
:020000040000fa
:0401f000fa0200000f
:020000040000fa
:0401f400fa0200000b
:020000040000fa
:0401f800fa02000007
:020000040000fa
:0401fc00fa02000003
:020000040000fa
:04020000fa020000fe
:020000040000fa
:04020400fa020000fa
:020000040000fa
:04020800fa020000f6
:020000040000fa
:04020c00fa020000f2
:020000040000fa
:04021000fa020000ee
:020000040000fa
:04021400fa020000ea
:020000040000fa
:04021800fa020000e6
:020000040000fa
:04021c00fa020000e2
:020000040000fa
:04022000fa020000de
:020000040000fa
:04022400fa020000da
:020000040000fa
:04022800fa020000d6
:020000040000fa
:04022c00fa020000d2
:020000040000fa
:04023000fa020000ce
:020000040000fa
:04023400fa020000ca
:020000040000fa
:04023800fa020000c6
:020000040000fa
:04023c00fa020000c2
:020000040000fa
:04024000fa020000be
:020000040000fa
:04024400fa020000ba
:020000040000fa
:04024800fa020000b6
:020000040000fa
:04024c00fa020000b2
:020000040000fa
:04025000fa020000ae
:020000040000fa
:04025400fa020000aa
:020000040000fa
:04025800fa020000a6
:020000040000fa
:04025c00fa020000a2
:020000040000fa
:04026000fa0200009e
:020000040000fa
:04026400fa0200009a
:020000040000fa
:100400000f0021000eff2d000e01880000000000eb
:10041000000020000000e000020032000001200087
:100420002002880014000700740007000000e000ac
:1004300003003a0000002000010020000200370005
:100440000000200001002000810f70000100320038
:100450000f000700000020000000e0000200320052
:10046000000002000000000006040200000000007e
:100470000040da000000fe00200020000000e00044
:1004800002003200100020009001880000000600e9
:10049000a1028800800478000000eb001f003700f4
:1004a000e284440054a0b4009905ba00e2844400f8
:1004b00054a0b4009906ba00e284440054a0b400e9
:1004c0000006eb00476fde00fd07b200ae018800ba
:1004d000636ce10003003a000ad801000000eb0061
:1004e0000e003700606ce10008003a00004deb00a0
:1004f0000a05e800020039003420ec000af0a000f0
:100500008b05e900f9ff3e00040037006168e10057
:10051000010032000086eb000b00070019c7ba008b
:100520000e04e0001905ba0003003a000a00e000da
:10053000dbff3a0000000600fe07b200ae028800b2
:100540008a047800f5ff37000cd0a300e20f4d00bd
:100550001c003b0089027800354dba000a05e8000e
:10056000020039003420ec000af0a0008b05e900fd
:100570000f003200254dba000a05e80002003900dc
:100580003420ec000af0a0008b05e90008003200de
:100590000c00e0000600320015cdba000a05e800a4
:1005a000020039003420ec000af0a0008b05e900bd
:1005b0008984e80054a0b4000b00e000e2ff3a0098
:1005c000000006009902ba00055d78008b05e9007d
:1005d000f7ff3200c82ade00055d78008b05e900d0
:1005e000f3ff32000c00e000f1ff320019ddba0029
:1005f000eeff37000040da000000fe0000000500ba
:020000040000fa
:100600000000fa006e2eef00707380007072880098
:1006100070728000f0718800f07180007071880045
:1006200070718000f0708800f07080007070880039
:10063000a1002000100020009e000700a100200063
:10064000200020009b000700612ea900652ea80055
:100650000080fa00000006000000fa00710020008f
:1006600020002000050107000080fa0000000600bd
:100670000000fa00316ea800300ea900213680007b
:1006800000f82f0080806000b0042000010070009e
:10069000203688000134800000fc2f0000806000bc
:1006a0000000a000003488002062a900401d200046
:1006b0004011880021e2a8002342a8000168a90097
:1006c0002168a8000080fa00000006000000fa007f
:1006d00041e2a900002ea800518ea90051aea90048
:1006e0004136800000f82f00008060001001b30048
:1006f00040368800c134800000fc2f00008060007c
:100700005000b300c0348800b1348000f00f2c00da
:10071000808060000060200001007000b03488001c
:1007200042a2a8004342a90042c2a80010128000c1
:100730003000b300101288001112800030fe2f002c
:1007400000806000c000b3001012880040c2a90001
:1007500041e2a80030cea900108ea900106ea900b9
:1007600034cea800148ea800146ea8000080fa00f1
:10077000000006000200fa00000f780000000000f0
:1007800000128000620060000000e000fcff3a0000
:100790009e007800411288000000000000128000d6
:1007a000610060000000e000fcff320040128000a9
:1007b0000080fa00000006000000fa0034cea90014
:1007c000b0042000ebff070010002000e9ff070045
:1007d00034cea8003100200020002000a700070030
:1007e00034cea900c0042000e2ff07000000eb00a7
:1007f000e0ff070034cea8003100200020002000d8
:100800009e0007000080fa00000006000400fa00c5
:100810000000eb00000f78000000eb0010079800cc
:1008200077ff070092ff0700a8ff0700e2ff07001d
:10083000010037000000000087ff070010002000c3
:10084000530007000000e00001003a001e0fe8001e
:100850001e0090000000e800100798009e00900025
:1008600020032000808f5000f2ff3a0021738000a7
:10087000002020000080600000f0a7000000ea00d7
:100880000000e9004f00de00004078000080fb001f
:10089000610060004900dd00217380000190a1002b
:1008a00001007000207388000000eb001007980022
:1008b000e1ff37000600fa001007980021079800b2
:1008c0002e009000cf80de00800078009011200084
:1008d0008088b900000f78001e009000e10f5000e2
:1008e0000c003a0005e1a9000421a90021088000bc
:1008f0000003200001007000200888000021ef00a4
:100900000068a9001e00e9001008880005e1a800a1
:100910001d0037001e009000e20f50000c003a004e
:1009200011e1a9001021a900810880000003200026
:1009300001007000800888000621ef0000e8a9008f
:100940001e00e9006008880011e1a8000e003700d1
:100950001e009000e30f50000b003a0013e1a900c5
:100960001221a900910880000003200001007000fe
:10097000900888000a21ef000108a9001e00e90084
:100980007008880013e1a8000080fa00000006004b
:100990000200fa00000f78001e007800e10f5000fe
:1009a0000e003a0000408000680060000000e00097
:1009b000030032000068a900100020002d0037005d
:1009c0000000000000408000680060000000e000bf
:1009d000fcff32000068a900250037001e007800e7
:1009e000e20f500010003a00014080000008200093
:1009f000008060000000e000030032000040800042
:100a0000100020001b0037000000000001408000a3
:100a100000082000008060000000e000fbff3200c2
:100a200000e8a900120037001e007800e30f500014
:100a30000f003a000140800000102000008060009c
:100a40000000e000030032000040800010002000a1
:100a50000800370000000000014080000010200066
:100a6000008060000000e000fbff32000108a900e8
:100a70000000eb000080fa00000006000600fa000b
:100a80001007980021079800110020001e00900018
:100a900088ff07000000eb00000f7800030037001c
:100aa0001e009000baff07001e0fe8002e00900005
:100ab0009e007800808f5000f9ff35001e009000e6
:100ac000e10f500002003a0005e1a90009003700db
:100ad0001e009000e20f500002003a0011e1a90050
:100ae000040037001e009000e30f500001003a00a0
:0c0af00013e1a9000080fa0000000600dd
:00000001FF
