:020000040000fa
:080000000002040000000000f2
:020000040000fa
:040008004c030000a5
:020000040000fa
:04000c004c030000a1
:020000040000fa
:040010004c0300009d
:020000040000fa
:040014004c03000099
:020000040000fa
:040018004c03000095
:020000040000fa
:04001c004c03000091
:020000040000fa
:040020004c0300008d
:020000040000fa
:040024004c03000089
:020000040000fa
:040028004c03000085
:020000040000fa
:04002c004c03000081
:020000040000fa
:040030004c0300007d
:020000040000fa
:040034004c03000079
:020000040000fa
:040038004c03000075
:020000040000fa
:04003c004c03000071
:020000040000fa
:040040004c0300006d
:020000040000fa
:040044004c03000069
:020000040000fa
:040048004c03000065
:020000040000fa
:04004c004c03000061
:020000040000fa
:040050004c0300005d
:020000040000fa
:04005400fa020000ac
:020000040000fa
:040058004c03000055
:020000040000fa
:04005c004c03000051
:020000040000fa
:040060004c0300004d
:020000040000fa
:040064004c03000049
:020000040000fa
:040068004c03000045
:020000040000fa
:04006c004c03000041
:020000040000fa
:040070004c0300003d
:020000040000fa
:040074004c03000039
:020000040000fa
:040078004c03000035
:020000040000fa
:04007c004c03000031
:020000040000fa
:040080004c0300002d
:020000040000fa
:040084004c03000029
:020000040000fa
:040088004c03000025
:020000040000fa
:04008c004c03000021
:020000040000fa
:040090004c0300001d
:020000040000fa
:040094004c03000019
:020000040000fa
:040098004c03000015
:020000040000fa
:04009c004c03000011
:020000040000fa
:0400a0004c0300000d
:020000040000fa
:0400a4004c03000009
:020000040000fa
:0400a8004c03000005
:020000040000fa
:0400ac004c03000001
:020000040000fa
:0400b0004c030000fd
:020000040000fa
:0400b4004c030000f9
:020000040000fa
:0400b8004c030000f5
:020000040000fa
:0400bc004c030000f1
:020000040000fa
:0400c0004c030000ed
:020000040000fa
:0400c4004c030000e9
:020000040000fa
:0400c8004c030000e5
:020000040000fa
:0400cc004c030000e1
:020000040000fa
:0400d0004c030000dd
:020000040000fa
:0400d4004c030000d9
:020000040000fa
:0400d8004c030000d5
:020000040000fa
:0400dc004c030000d1
:020000040000fa
:0400e0004c030000cd
:020000040000fa
:0400e4004c030000c9
:020000040000fa
:0400e8004c030000c5
:020000040000fa
:0400ec004c030000c1
:020000040000fa
:0400f0004c030000bd
:020000040000fa
:0400f4004c030000b9
:020000040000fa
:0400f8004c030000b5
:020000040000fa
:0400fc004c030000b1
:020000040000fa
:040100004c030000ac
:020000040000fa
:040104004c030000a8
:020000040000fa
:040108004c030000a4
:020000040000fa
:04010c004c030000a0
:020000040000fa
:040110004c0300009c
:020000040000fa
:040114004c03000098
:020000040000fa
:040118004c03000094
:020000040000fa
:04011c004c03000090
:020000040000fa
:040120004c0300008c
:020000040000fa
:040124004c03000088
:020000040000fa
:040128004c03000084
:020000040000fa
:04012c004c03000080
:020000040000fa
:040130004c0300007c
:020000040000fa
:040134004c03000078
:020000040000fa
:040138004c03000074
:020000040000fa
:04013c004c03000070
:020000040000fa
:040140004c0300006c
:020000040000fa
:040144004c03000068
:020000040000fa
:040148004c03000064
:020000040000fa
:04014c004c03000060
:020000040000fa
:040150004c0300005c
:020000040000fa
:040154004c03000058
:020000040000fa
:040158004c03000054
:020000040000fa
:04015c004c03000050
:020000040000fa
:040160004c0300004c
:020000040000fa
:040164004c03000048
:020000040000fa
:040168004c03000044
:020000040000fa
:04016c004c03000040
:020000040000fa
:040170004c0300003c
:020000040000fa
:040174004c03000038
:020000040000fa
:040178004c03000034
:020000040000fa
:04017c004c03000030
:020000040000fa
:040180004c0300002c
:020000040000fa
:040184004c03000028
:020000040000fa
:040188004c03000024
:020000040000fa
:04018c004c03000020
:020000040000fa
:040190004c0300001c
:020000040000fa
:040194004c03000018
:020000040000fa
:040198004c03000014
:020000040000fa
:04019c004c03000010
:020000040000fa
:0401a0004c0300000c
:020000040000fa
:0401a4004c03000008
:020000040000fa
:0401a8004c03000004
:020000040000fa
:0401ac004c03000000
:020000040000fa
:0401b0004c030000fc
:020000040000fa
:0401b4004c030000f8
:020000040000fa
:0401b8004c030000f4
:020000040000fa
:0401bc004c030000f0
:020000040000fa
:0401c0004c030000ec
:020000040000fa
:0401c4004c030000e8
:020000040000fa
:0401c8004c030000e4
:020000040000fa
:0401cc004c030000e0
:020000040000fa
:0401d0004c030000dc
:020000040000fa
:0401d4004c030000d8
:020000040000fa
:0401d8004c030000d4
:020000040000fa
:0401dc004c030000d0
:020000040000fa
:0401e0004c030000cc
:020000040000fa
:0401e4004c030000c8
:020000040000fa
:0401e8004c030000c4
:020000040000fa
:0401ec004c030000c0
:020000040000fa
:0401f0004c030000bc
:020000040000fa
:0401f4004c030000b8
:020000040000fa
:0401f8004c030000b4
:020000040000fa
:0401fc004c030000b0
:020000040000fa
:040200004c030000ab
:020000040000fa
:040204004c030000a7
:020000040000fa
:040208004c030000a3
:020000040000fa
:04020c004c0300009f
:020000040000fa
:040210004c0300009b
:020000040000fa
:040214004c03000097
:020000040000fa
:040218004c03000093
:020000040000fa
:04021c004c0300008f
:020000040000fa
:040220004c0300008b
:020000040000fa
:040224004c03000087
:020000040000fa
:040228004c03000083
:020000040000fa
:04022c004c0300007f
:020000040000fa
:040230004c0300007b
:020000040000fa
:040234004c03000077
:020000040000fa
:040238004c03000073
:020000040000fa
:04023c004c0300006f
:020000040000fa
:040240004c0300006b
:020000040000fa
:040244004c03000067
:020000040000fa
:040248004c03000063
:020000040000fa
:04024c004c0300005f
:020000040000fa
:040250004c0300005b
:020000040000fa
:040254004c03000057
:020000040000fa
:040258004c03000053
:020000040000fa
:04025c004c0300004f
:020000040000fa
:040260004c0300004b
:020000040000fa
:040264004c03000047
:020000040000fa
:10040000ef0321000eff27000e018800000000000e
:10041000000020000000e000020032000001200087
:1004200020028800140007009d0007000000e00083
:1004300003003a006046210001002000020037005e
:100440000000200001002000810f70000100320038
:100450000f000700000020000000e0000200320052
:100460000000020000000000141102000000000063
:100470000040da000000fe00a00020000000e000c4
:1004800002003200002020009001880000000600d9
:10049000a1028800800478000000eb001f003700f4
:1004a000e284440054a0b4009905ba00e2844400f8
:1004b00054a0b4009906ba00e284440054a0b400e9
:1004c0000006eb00476fde00fd07b200ae018800ba
:1004d000636ce10003003a000ad801000000eb0061
:1004e0000e003700606ce10008003a00004deb00a0
:1004f0000a05e800020039003420ec000af0a000f0
:100500008b05e900f9ff3e00040037006168e10057
:10051000010032000086eb000b00070019c7ba008b
:100520000e04e0001905ba0003003a000a00e000da
:10053000dbff3a0000000600fe07b200ae028800b2
:100540008a047800f5ff37000cd0a300e20f4d00bd
:100550001c003b0089027800354dba000a05e8000e
:10056000020039003420ec000af0a0008b05e900fd
:100570000f003200254dba000a05e80002003900dc
:100580003420ec000af0a0008b05e90008003200de
:100590000c00e0000600320015cdba000a05e800a4
:1005a000020039003420ec000af0a0008b05e900bd
:1005b0008984e80054a0b4000b00e000e2ff3a0098
:1005c000000006009902ba00055d78008b05e9007d
:1005d000f7ff3200c82ade00055d78008b05e900d0
:1005e000f3ff32000c00e000f1ff320019ddba0029
:1005f000eeff3700809fbe000400fa000168a900ea
:100600001e00370030118000004f7800008080000d
:100610008000e800f0002800008060000000e0009a
:1006200004003d000000e90001ff2f000080700081
:100630000000e80010079800108080009e009000e5
:10064000808f50000700320000808000810221006e
:10065000008040001e4878009e00900001808800c5
:1006600003003700308080000000e8003080880000
:10067000208080000000e8002080880010118000a9
:10068000610060000000e000deff3a000080fa0038
:100690004f00be00004006000040da000000fe00ef
:1006a000000005000000fa0068815700cfb89700ed
:1006b000f50107000080fa000000060006000700b0
:1006c00061000700160107004001070097000700be
:1006d00049020700f0013700ec874700889fbe0001
:1006e0008a9fbe008c9fbe008e1f78000006780097
:1006f00001047800180790002805900098067800fb
:10070000cdb79f00b80590001202780092029000c9
:1007100022039000b20390000400be000601be0058
:100720004f18de006011b8008000eb00d0b79f00ca
:10073000e1b79f00f2b79f0083bf9f00800478005d
:100740000900e000060032006000b8006011b80047
:10075000040250008582580006035900878359001f
:100760000e00e000020035000d10a100cdb79f0083
:100770000900e00005003a004fb097000028a300f0
:1007800002003a000038a300020032008a00e900ab
:10079000010037008a007800f8815700a20020008d
:1007a000080078008b0007000900e00003003a0011
:1007b000cfb097000128a300080032000000e90034
:1007c00000814500b1c2b3000900e0000100320021
:1007d000d1c2b30001497800060037000138a300f8
:1007e000040032000000e9008080450002c2b3002e
:1007f00082487800480190000201e90000015100a0
:10080000808045004fb297008a0178000c00780084
:10081000440207009c0090000188a30004003200fd
:1008200098009000810f500001003d000100780009
:100830004f0778004f06be004f05be004f04be00b4
:10084000cf00b100000006000200fa00889fbe0041
:100850008a9fbe00800578000104780002007800bd
:10086000180190002805900098007800b1bf9f0003
:10087000b80490000200e000020035000110a10061
:10088000b1bf9f00ea815700820020008a007800f3
:10089000100278009002900020039000b0039000b6
:1008a000080078004b0007003fb99700f000610096
:1008b000040032000000e9008080440002c3b3005d
:1008c000824878003fb99700e800610004003200d8
:1008d0000000e9008080440002c2b3008248780032
:1008e000480190000201e9000001510080804400ad
:1008f0003fba97008a0178000b00780009020700d0
:100900009b0090000188a300040032009800900032
:10091000810f500001003d00010078004f05be002e
:100920004f04be000080fa0000000600ea8747007e
:10093000889fbe008a9fbe008e1f7800000478004a
:10094000030078007287570084e2260055c726000e
:10095000049fbe00c3962200030f78006c875700e7
:10096000004feb0011059000a10490009105780064
:100970000200e000020032000207780001003700a8
:10098000728757000000e00002003a000e00780075
:10099000610407000a00e000030035008a0f5000e0
:1009a000010036000a0078000b0278008901780007
:1009b000000178008e00780008007800d901070057
:1009c0004f0778004f05be004f04be00af00b100d6
:1009d00000000600f4874700889fbe008a9fbe0083
:1009e0008c9fbe008e1f78000605be000404be006a
:1009f00081bf9f0082b79f00f3b79f00b0009000b7
:100a0000e1b79f001301780092b79f009006900015
:100a1000400090000000e900000678000d00e000b2
:100a200001003d001d002000efb197000080410053
:100a30000048eb001e0020001f0037000c06e900f4
:100a40000fb09700cf80de006109b900a0b79f000a
:100a5000b1b79f00c2b79f00d3b79f000203be008b
:100a60000002be000800be000a01be0081050700aa
:100a700000077800efb097000c80400003c3b3007c
:100a8000034847008d06e9000fb897000000e90011
:100a900080bf9f002fb29700bfb297004fb397005f
:100aa000dfb397000800be000a01be006a05070018
:100ab0000205be000004be000c00e0000d00340082
:100ac000e00f5400e08f5c00e00f5d00e08f5d0000
:100ad000daff3a000d00e000d8ff3c008fb8970025
:100ae0000100e000030034001fb197000218a300ca
:100af000d2ff3a000e00e00002003a00ffb197007a
:100b00001340a1000c0078004f0778004f06be008c
:100b10004f05be004f04be004f01b10000000600ab
:100b20000200fa00889fbe008a9fbe000005780080
:100b3000010478000200780018019000a8049000d9
:100b400098007800b1bf9f00b80590000200e00057
:100b5000020035000110a100b1bf9f00ea815700db
:100b6000a200200089007800100278009002900016
:100b700020039000b00390000800780095ff070064
:100b8000480190000201e900000151008080450009
:100b90003fba9700890178000a00780061010700d8
:100ba0009a0090000188a300040032009800900091
:100bb000810f500001003d00010078004f05be008c
:100bc0004f04be000080fa0000000600fa874700cc
:100bd000889fbe008a9fbe008c9fbe008e1f78003b
:100be00080047800010478008205780018019000e4
:100bf0002805900018077800b80090000200e00077
:100c0000020035000e10a100010037001200200084
:100c100070006700e0b79f000b0032001b027800f5
:100c20009b0290002b039000bb039000e00f52004a
:100c3000e08f5a00e00f5b00e08f5b0002003200a3
:100c40008a86e900010037008a067800e80267001a
:100c5000f5b79f00010032008d06e9001b02780005
:100c60009b0290002b039000bb039000e4af9f0019
:100c7000f5af9f0086b79f0097b79f00480690008a
:100c80000c06e9000c8040000048eb00efb2970032
:100c90007fb297008903780081047800d8af9f0065
:100ca000020478008bbf9f008a0578000345780016
:100cb0002b0037000c06e9006fab97006f00630054
:100cc000e90f500002003c000003b00001003700b3
:100cd0007005b0000a03fb001604b100f90f5300c1
:100ce0000c003e00000378000650a0001606b1007c
:100cf000f90f530007003e00b4b79f00a5b79f004f
:100d0000c7b79f00a3030700cfb39700afb2970008
:100d10003fb297000c834400004b78000804e900c0
:100d20008d06e9006fa89700ffa897000fb1970004
:100d30009fb19700460020008301d1000281d300bb
:100d40008180d3000080d3000603e900faff3a0057
:100d5000e0af9f00f1af9f0082b79f0093b79f0065
:100d6000e10f56000f0034006fa89700ffa897000e
:100d70000fb197009fb19700e00f5000e08f58002f
:100d8000e00f5900e08f5900caff3a000800e00068
:100d9000c8ff3c000d00e000020034000e18a30064
:100da000c4ff3a0089007800f4b79f0087047800f8
:100db0005fac97008a4178000b0578008fbd9700e3
:100dc0000500e000140032001b0278009b02900036
:100dd0002b039000bb039000e4af9f00f5af9f0092
:100de00086b79f0097b79f00e00f5200e08f5a0030
:100df000e00f5b00e08f5b00070032000c06e900ab
:100e00000c804000034878000c06e9000c8040008c
:100e100002c3b30002487800ffb297000500e0006b
:100e2000040032000c06e9000c80400002c2b3004e
:100e300002487800480190000201e9000c015100cd
:100e40008c8040000e0278008a017800090078004a
:100e5000b4000700990090000188a300040032004c
:100e600098009000810f500001003d0001007800c3
:100e70004f0778004f06be004f05be004f04be006e
:100e8000af01b10000000600820178000101780086
:100e9000f1ff27004603370084082000848f5000ac
:100ea0001d0032000d003c0014082000848f50000b
:100eb0002700320002003c00040820000400370034
:100ec00024082000848f500036003200440820009f
:100ed000848f500047003a003a003700040a20008f
:100ee000848f50002900320004003c0004092000d7
:100ef000848f50003f003a002a003700020c200087
:100f0000828f500033003200020f2000828f500089
:100f100038003a002f0037009380e9000200e0001b
:100f200005003200810978001102fb00cfa2de002b
:100f3000612bb9002c00370081097800114278003c
:100f40000482fb008002eb006033b800260037000b
:100f500013027800e40052000200e00006003200b4
:100f60008109780011027800910290004fabde00f9
:100f7000860378001c003700810978001102780090
:100f8000910290006033b800170037009380e900a9
:100f90008109780011027800cfa2de00612bb90030
:100fa0001100370093027800e88052008109780030
:100fb000110278009102900021039000b10390008b
:100fc000090037009380e9000200e00002003200cf
:100fd000efff37009380e900810978001102780063
:100fe0008002eb006033b8000498be000690be009b
:100ff000100005000000050044082000848f500008
:101000002500320008003c0014082000848f5000a6
:101010001400320024082000848f50002400320085
:10102000040820000c00370004092000848f5000c1
:101030001f00320004003c0084082000848f500010
:1010400024003a000e003700040a2000848f50006c
:1010500011003200040c2000848f50001d003a0063
:101060000d0037009380e900810978009100780035
:1010700001087800cf91de008288be00140037009e
:101080009380e900810978009100780001087800d8
:10109000824878000e0037009380e90081097800cb
:1010a0009100780001087800820878000800370075
:1010b0009380e900810978009100780001087800a8
:1010c0006112b900612bb9008498be008690be0001
:1010d0001000050000000500889fbe000004780095
:1010e0004800900082047800808f54000100360090
:1010f0008004780009017800580090001b02070066
:10110000580090000900400050049800c80090006a
:1011100089845000490498000048eb004f04be0049
:1011200000000600f2874700889fbe008a9fbe002d
:101130008c9fbe008e1f7800800478000105780027
:1011400002047800830578006107620002003a001b
:101150008b0f540008003900080178008a007800dd
:1011600009007800dcff07008b0f540002003900f3
:10117000880578001e003700088655000c017800ad
:10118000f00f56000100360002012000010220008d
:101190007e805700fc0107008c06780005003700b0
:1011a00002012000fe80570009007800caff0700f6
:1011b000f0865600ef8f5600f9ff3e004461de00d6
:1011c00000ff2f008091b9000c014100fe80570004
:1011d00009007800c0ff07000e00e00004003a009c
:1011e000080178008a00780009007800baff07003b
:1011f0000b0078004f0778004f06be004f05be0079
:101200004f04be002f01b1000000060000000500e1
:101210000000050000000500000178000040eb0020
:101220008080fb00818040002301210081814100fa
:10123000134278000404e00004003a003001210069
:101240008100400011407800000006009201780003
:10125000934f520005003a00300121008100400008
:10126000114078000309e800010037000040e80061
:10127000ea4f5000eaff360000000600f6874700fc
:10128000889fbe008a9fbe008c9fbe008e1f780084
:1012900000057800010478008305780004067800d2
:1012a0000000eb00c0b79f008080eb00d1b79f002b
:1012b000e0b79f00f2b79f000008200080bf9f00aa
:1012c00098007800010078008004eb0001003700ee
:1012d0008904e800304178000204e0000300320095
:1012e00053c2b300834f5100f9ff3a000900e000f8
:1012f00004003200090178000a00780076ff070038
:10130000188c44001807780050c2b3009e4f10009c
:101310003f013a000e07e8000e0c7800100037007d
:10132000cfb097000100a0000b003700cfb09700ae
:101330000110a00008003700cfb097000120a000e6
:1013400005003700cfb097000130a0000200370041
:10135000cfb097000140a000c1b79f00000ce8008b
:101360001800780090407800b2c2b30082cf5000dd
:10137000f1ff320007003c0002c2b30082cf5000f0
:10138000f0ff320032c2b30082cf500007003a00b3
:10139000efff3700d2c2b30082cf5000e0ff32002f
:1013a00002c3b30082cf5000e0ff3200a2c2b300fc
:1013b00082cf50000d003a00000ce8001c80e900cc
:1013c000000e780010007800e0b79f000000e000f9
:1013d0000f003d00cfb097000100a200c1b79f00f1
:1013e0000000ea00e0b79f0009003700390107005c
:1013f000e0b79f0001003700000ce80018007800fb
:101400009000fb000103b100e98f5000faff3600a5
:101410004fb097000008a300020032000010a100a6
:10142000c0b79f0018007800e1c2b30090cf100051
:1014300016003a008000eb00d1b79f000000e800e2
:10144000000c7800a1c2b30090cf100006003a0053
:10145000000ce8001c80e900000e78001000780005
:10146000d0b79f00090037001a010700d0b79f00ce
:1014700001003700000ce800180078009000fb0025
:101480000103b100e98f5000faff36000800780030
:1014900061ff070080467800180078001000fb000c
:1014a000b501070091062000810f5000380032007e
:1014b00012003c0041062000810f50003400320031
:1014c0000a003c0011062000810f5000200032006d
:1014d00031062000810f5000a00032005102200090
:1014e000810f5000bc003a00b400370071062000a4
:1014f000810f5000b8003c00880037000107200031
:10150000810f50005c00320007003c00e106200023
:10151000810f50007a003200f1062000810f500048
:10152000ad003a003900370051072000810f50000c
:101530002700320081072000810f50004200320056
:1015400031072000810f5000a3003a008f003700c0
:101550008d80fb000c01780000fe2f000f00400082
:10156000b80107000000e000a80032001800780071
:10157000000ce8009041780002fe2f000f014100ae
:10158000f88057000a00780021ff07000e0037009e
:101590008d80fb008c0178001200200000fe2f00df
:1015a0000f0040003cfe07000000e0009700320002
:1015b000180ce80002fe2f000f014100f8805700d0
:1015c0000a00780044fc0700808444009000370043
:1015d0008d80fb008c0178000001eb0000fe2f00e5
:1015e0000f0040002cfe07000000e00087003200e2
:1015f000180ce80002fe2f000f014100f880570090
:101600000a00780046fd0700efff37008d80fb00e1
:101610008c0178000001eb0000fe2f000f0040005d
:101620001dfe07000000e00078003200180ce80002
:1016300002fe2f000f014100f88057000a007800d9
:1016400081fc0700e0ff37008d80fb008c017800f3
:101650000001eb0000fe2f000f0040000efe07000f
:101660000000e0006900320018007800000ce8007b
:10167000904178001c0037008c0178000001eb00dd
:10168000010f200000fe2f000f00400002fe0700a7
:101690000000e0005d003200180ce8000fb0970079
:1016a0009fb097002fb19700bfb19700e00f500097
:1016b000e08f5800e00f5900e08f590009003a0010
:1016c000cfb597006fb49700a0002100120107006a
:1016d0000b0278008801780000017800a100210049
:1016e0004700370083c7b30002fe2f000f014100ff
:1016f000f88057000a00780034fd0700b2ff370079
:101700000b8144008d80fb008c01780000fe2f00cf
:101710000f00400038fe07003c0037008d80fb00c2
:101720000c01780000fe2f000f004000450107006b
:101730000000e0003500320018007800000ce800de
:101740009041780002fe2f000f014100f880570001
:101750000a007800aefe07009bff370000c8b30008
:1017600080cf560029003a00180ce8001c80e900e0
:10177000000e780010407800e0df9f00130020008a
:10178000e2fd2f000f0141000800370000c8b30040
:1017900080cf56001d003a00180ce8001c80e900bc
:1017a000000e78008001eb0010017800f8805700ef
:1017b0000a0078005dfc070083ff370000c8b30013
:1017c00080cf560011003a00180ce8004fb2970085
:1017d000efb19700080037000e0c78000000eb0016
:1017e000c0b79f00e0b79f000080eb00d0b79f001c
:1017f0000002eb00840178001200200001012100aa
:101800000a00780047fe07006fff3700180ce80059
:10181000090078004f0778004f06be004f05be0054
:101820004f04be006f01b100000006008200fa0004
:10183000889fbe008a1f7800000578008204780027
:10184000c13f9f000004eb00100037000902780040
:1018500088017800a2f72f000f01410081f72f00c7
:101860008f8040000a00780084fe070008004000d6
:10187000880f500004003d00b0042000e081880083
:101880000084eb0004003700000478004f38970014
:101890001004e000edff3a00080078004f057800e2
:1018a0004f04be000080fa000000060080007800af
:1018b0001000200002022000828f5000040032003d
:1018c000e9805000e48f5000010036000000eb007a
:1018d00000000600889fbe008a1f7800000578007f
:1018e0000a047800984478000805e8000900fb0025
:1018f000eeff07000000e000f9ff3a00b0c2b300bd
:1019000080cf540005003200d0c2b3008000eb004d
:1019100080cf540005003a00020037008000eb0041
:1019200001003700110020000804e8000000eb006f
:1019300003003700ea00b900020050000003b000c5
:101940003801fb0003fd2f0082814100e98f510027
:10195000f8ff36000100e00001003a000000ea0054
:101960004f0578004f04be0000000600800178009b
:1019700002003700b15978000201e9000200e000de
:10198000fcff3a0000000600889fbe008a9fbe0050
:10199000800478000200e0005b0032000140780023
:1019a000814c780082814400f1f99f00e20f5100e0
:1019b0005500360091449800a1449800e1f99f0039
:1019c000d1f99f00e60f51004f003600b144980056
:1019d000c1f99f00e80f51004b0036000905ea00ed
:1019e000630565000a8444000a055100c1ff2f0009
:1019f000010565000080fb008000eb001210200054
:101a000013102000f3000700008cbe000a01440000
:101a100060b99f0071b99f00e80f55003a00360089
:101a20002004980031049800400498005104980064
:101a300020b99f0031b99f0040b99f0051b99f0064
:101a4000f80f5500300036006004980071049800cb
:101a5000000c9800110c9800200c9800310c980094
:101a6000400c9800510c980020b19f0031b19f00ac
:101a700040b19f0051b19f0060b19f0071b19f00c4
:101a800000b99f0011b99f00640164007801410012
:101a900002044400020555006011b8000203be00b4
:101aa0000002be000403be006022b8000000720005
:101ab000818072000201730083817300100037007f
:101ac000009cbe000294be0040049800510498009f
:101ad0006204980073049800000c9800110c9800a0
:101ae000220c9800330c9800400c9800510c980080
:101af000620c9800730c98000a02b1000802b00052
:101b0000ff0f5500eeff3e00090078004f05be00b4
:101b10004f04be000000060080007800040037007b
:101b20003104e00002003a0000005100000006000d
:101b3000010178000108a300f9ff3a008101780053
:101b400031017800f4ef2f00020242000281ea0026
:101b5000020162000408280004016100f7ff32005e
:101b600083007800010178003104e000fdff3a00b5
:101b70000000510000000600f1fb2f0080804000b3
:101b8000f98f500001003e000050a0000000060048
:101b9000f9ff3700f1f92f0080804000f98f5000e5
:101ba00001003e00f005b20000000600f9ff37001a
:101bb000f28747008e1f7800020278000301780048
:101bc0000000e0000200320000077800010037004a
:101bd000728757008002eb000100e0000100320034
:101be0008102e90070805700060009000018eb0030
:101bf0000080eb0080bf9f002310200093bf9f0058
:101c0000aebf9f00b1bf9f00c5bf9f000100e000b5
:101c100003003d00b1042000e18188000600370088
:101c2000004feb00eebf9f00debf9f0084007800f6
:101c300070805700250007004f0778002f01b10082
:101c400000000600881f78000004780000082000cb
:101c5000808f50001a00350010082000808f50003f
:101c60000d00340030082000808f500014003a002e
:101c70009200780068805000000978001002780017
:101c80009002900020039000b0039000049cbe00de
:101c90000694be000800370092027800648052006b
:101ca00000097800900090001000780015000700ef
:101cb000009cbe000294be0010002000010037000e
:101cc0000000eb004f047800000006000200fa005c
:101cd000881f780000047800e2bf9f0064815700ed
:101ce00008007800d1fe0700980090000148a3008a
:101cf000010032000080eb004f0478000080fa0001
:101d000000000600810378001d0007000001be00ee
:101d10006000b8000478a30013003a006220e100dc
:101d200015003e000d0039008301d1000281d3006f
:101d30008180d3008301d1000281d3008180d30050
:101d40008301d1000281d3008180d3000538b00027
:101d5000c42add00f300b2008381720007f0a700ff
:101d600003f0a0000000060083ff2700020020000f
:101d70006110b900f9ff370003ff2700f7ff3700b4
:101d8000c70ade00f107b200f50fb200080032000a
:101d9000e1cf4200020032000170a00024000500e3
:101da000810f7000010032000408050044000500a6
:101db000810f700002003a00140005008502e9005e
:101dc0000000400081c04800fcff3b000170a00003
:101dd00024000500020ab900001bb9000200b80087
:101de000810042008100430000000600889fbe0081
:101df0008a9fbe0030044200b0844a0030054b0088
:101e000090854b006000b1000898be000a90be00ab
:101e10000440e10005c8e10006d0e10007d8e10078
:101e200002003100680040001008e8004f05be00c5
:101e30004f04be0000000600889fbe008a9fbe00bf
:101e4000100478009004900020059000b0059000e8
:101e50000418540005985c0006185d0007985d00a2
:101e6000110020000440e10005c8e10006d0e100b7
:101e700007d8e100010039008000eb001088100055
:101e80004f05be004f04be00000006001200fa001d
:101e9000889fbe008a9fbe008c9fbe00e0b79f0057
:101ea000f1b79f0082bf9f0093bf9f000605be0051
:101eb0000404be000000eb00d0b79f00c0b79f0035
:101ec000b0b79f00a0b79f0090b79f0000067800b2
:101ed0005fb19700cfb09700820141003fb09700fb
:101ee0000200e00004003d00370007007e8057003c
:101ef000beff070003003700330007007e80570055
:101f0000cdff0700dfb697000d00e0000c003500a4
:101f10006fb29700ffb297000fbb97009fbb97006f
:101f200010002000010020006011b80000027200c3
:101f30008182720002037300838373001b00070019
:101f40000c06e80001042000810f5600e0ff3a0073
:101f50000d00e00004003d000802be000a03be00c0
:101f60007e805700a1ff07005fa897000000e000f7
:101f700005003a001fb29700afb297003fb3970039
:101f8000cfb39700090007006fb09700ffb097002c
:101f90000fb997009fb997004f06be004f05be00ce
:101fa0004f04be000080fa00000006000100070098
:101fb00000000600a4b79f00b5b79f00c6b79f00fa
:101fc000d7b79f00000006004f09de008281710034
:101fd000b3b79f004f01de00818040008280700017
:101fe000a1b79f008fb097004f09de0000004000ae
:101ff0000200700090b79f007fa897004f01de009d
:10200000818040008280700081b79f000d00070032
:102010004f3ade000000400004007000f0af9f0067
:10202000080007000402420085824a0006034b00b4
:1020300087834b00dfff07000802be000a03be00d3
:10204000000006002fb29700bfb297004fb3970071
:10205000dfb3970000000600881f780018002000fa
:10206000881f780089ff07008f87e9004f047800f8
:1020700000000600801feb0084ff07008f87e90047
:1020800000000600889fbe008a9fbe00e00f50003f
:10209000e08f5800e00f5900e08f59000c003d0020
:1020a0006044b8006055b8000000540081805c00b6
:1020b00002015d0083815d0018002000150007000b
:1020c00008003d00180007000004eb000500370081
:1020d0000004eb000f00070002003d0012000700a3
:1020e00018002000dcff07000800e00006003200b6
:1020f0006022b8006033b8000000520081805a00ae
:1021000002015b0083815b004f05be004f04be00ef
:1021100000000600e00f5200e08f5a00e00f5b0065
:10212000e08f5b00000006006044b8006055b80016
:102130000402540085825c0006035d0087835d0015
:1021400000000600889fbe008a9fbe008c1f78009a
:10215000e00f5000e08f5800e00f5900e08f590069
:102160000d003d006044b8006055b8000000540008
:1021700081805c0002015d0083815d001c00200005
:102180000820e10009a8e1000ab0e1000bb8e10075
:102190000d003d00080037000006eb00e00f520084
:1021a000e08f5a00e00f5b00e08f5b0006003d000f
:1021b0006044b8006055b8000402540085825c0099
:1021c00006035d0087835d00aaff07000c00e000a6
:1021d000060032006022b8006033b80000005200f0
:1021e00081805a0002015b0083815b004f0678000a
:0c21f0004f05be004f04be0000000600ba
:020000040000fa
:1021fc00433d000025640000004400003d25000024
:04220c00640000006a
:020000040000fa
:102210000000fa0071002000200020008b01070060
:102220000080fa00000006002800fa003e2eef00b1
:102230000e2eef004e2eef00316ea800300ea900da
:10224000000ea900612ea900410ea800412ea80091
:10225000040ea900652ea9002136800000f82f0089
:1022600080806000b00420000100700020368800eb
:102270000134800000fc2f00008060000000a000fe
:10228000003488002062a900401d20004011880011
:1022900021e2a8002342a8000168a9002168a80043
:1022a000a100200010002000f60007001000200010
:1022b000000f78000000eb00100798000000eb0012
:1022c000200798000000eb00300798000000eb00aa
:1022d0004007980001003700000000001e00900039
:1022e0007400680000f0a7000000ea000000e900a8
:1022f0004f00de00004078009e0090008100e80062
:10230000110798000004e000140032001e0078005d
:10231000e10f50000f003a002173800000202000e0
:102320000080600000f0a7000000ea000000e90063
:102330004f00de00004078000080fb00610060007c
:102340004900dd00217380000190a10001007000b0
:10235000207388000000eb001007980010728000c6
:102360004800de00614060000080fb0070079800bc
:10237000107280004900de00614060000080fb00b8
:10238000000f98007e009000e10f500021003a00fd
:10239000fe0090003e009000808f50001d00320033
:1023a0002180800073004700811f7800e10f290021
:1023b000811f7800bbf80700e48757000000eb009e
:1023c000500798000e003700000000001111800037
:1023d00000202000008060000000e000fbff3a00c9
:1023e0005e009000730040006e4078000000fb002b
:1023f000201188005e0090000000e800500798005f
:102400005e009000730040006e4078000004e00021
:10241000edff3a000e089000e10f500021003a0055
:102420008e0890004e009000808f50001d003200fa
:102430000000eb00600798007d004700ae009000b0
:10244000811f780031102900811f780095f807005e
:10245000e48757000e0037000000000011118000d3
:1024600000202000008060000000e000fbff3a0038
:102470006e0090007d0040006e4078000000fb0080
:10248000201188006e0090000000e80060079800ae
:102490006e0090007d0040006e4078000004e00077
:1024a000edff3a00fe009000310798008e08900082
:1024b00041079800660037001080800081022100eb
:1024c00000804000904078002157980010808000e4
:1024d0008000e800f0002800008060000000e000bc
:1024e00004003d000000e90001ff2f0000807000a3
:1024f0000000e8001080880000000000111180003a
:1025000000202000008060000000e000fbff3a0097
:102510002e5090000000fb00201188009003210045
:10252000904078008003210001487800a00321003a
:10253000904078009003210001487800a00321001a
:10254000ae5090000148780040808000e20f5000bb
:1025500003003c00408080000000e80040808800cc
:1025600040808000e30f500039003a0080032100d2
:1025700090407800c0c6b30080cf500034003a00cd
:10258000900321009040780040c6b30080cf5000f7
:102590002f003a00a00321009040780010c3b30040
:1025a00080cf500005003200a00321009040780049
:1025b00020c3b30080cf500025003a00a0032100c3
:1025c0009040780010c3b30080cf50000e003a0056
:1025d000207080006100600000f0a7000000ea00a9
:1025e0000000e9004f00de00004078000080fb00a2
:1025f00061006000217080000100a10001007000f6
:1026000020708800070037001e00780000f0a70047
:102610000000ea00000fe9001e0078004f00de0015
:10262000000f7800a00321008040eb0001487800f3
:10263000a003210090407800900321000148780019
:102640009003210090407800800321000148780029
:102650001180800000808000808f500096ff3a003b
:10266000ebfe0700100020003d000700e10f5000c6
:1026700019ff3a002e0090000000e80020079800a3
:1026800016ff37000600fa0010079800210798008f
:102690002e009000cf80de00800078009011200096
:1026a0008088b900000f78001e009000e10f5000f4
:1026b0000c003a0005e1a9000421a90021088000ce
:1026c0000003200001007000200888000021ef00b6
:1026d0000068a9001e00e9001008880005e1a800b4
:1026e0001d0037001e009000e20f50000c003a0061
:1026f00011e1a9001021a900810880000003200039
:1027000001007000800888000621ef0000e8a900a1
:102710001e00e9006008880011e1a8000e003700e3
:102720001e009000e30f50000b003a0013e1a900d7
:102730001221a90091088000000320000100700010
:10274000900888000a21ef000108a9001e00e90096
:102750007008880013e1a8000080fa00000006005d
:102760000200fa00000f78001e007800e10f500010
:102770000e003a0000408000680060000000e000a9
:10278000030032000068a900100020002d0037006f
:102790000000000000408000680060000000e000d1
:1027a000fcff32000068a900250037001e007800f9
:1027b000e20f500010003a000140800000082000a5
:1027c000008060000000e000030032000040800054
:1027d000100020001b0037000000000001408000b6
:1027e00000082000008060000000e000fbff3200d5
:1027f00000e8a900120037001e007800e30f500027
:102800000f003a00014080000010200000806000ae
:102810000000e000030032000040800010002000b3
:102820000800370000000000014080000010200078
:10283000008060000000e000fbff32000108a900fa
:102840000000eb000080fa00000006000600fa001d
:102850001007980021079800110020001e0090002a
:1028600088ff07000000eb00000f7800030037002e
:102870001e009000baff07001e0fe8002e00900017
:102880009e007800808f5000f9ff35001e009000f8
:10289000e10f500002003a0005e1a90009003700ed
:1028a0001e009000e20f500002003a0011e1a90062
:1028b000040037001e009000e30f500001003a00b2
:0c28c00013e1a9000080fa0000000600ef
:020000040000fa
:1028cc002810000014000000800000000010000020
:1028dc000a000000800000000a1000001e0000002a
:1028ec0082000000286e69006c2900002500680039
:1028fc00076c09004c836a009074a0007ac0000039
:10290c008068880000846c00820081003c1000000c
:0c291c000200000080000000000000002d
:00000001FF
